:020000040800F2
:100000001894072499030008AD6700088F6400085E
:10001000A96700086D0C0008398C0008000000007A
:10002000000000000000000000000000BD7A000891
:10003000710C000800000000B1670008BF7A0008DA
:10004000BF030008BF030008BF030008BF03000888
:10005000BF030008BF030008BF030008BF03000878
:10006000BF030008BF030008BF030008BF03000868
:10007000BF030008BF030008BF030008BF03000858
:10008000BF030008BF030008BF030008BF03000848
:10009000BF030008BF030008BF030008BF03000838
:1000A000BF030008BF030008BF030008BF03000828
:1000B000BF030008BF030008C57B0008BF0300089A
:1000C000BF030008BF030008BF030008BF03000808
:1000D000BF030008298C0008BF030008BF03000805
:1000E000BF030008BF03000800000000BF030008B2
:1000F000BF030008BF030008BF030008BF030008D8
:10010000BF030008BF030008BF030008BF030008C7
:10011000BF030008BF030008BF030008BF030008B7
:10012000BF030008BF030008BF030008BF030008A7
:10013000BF030008BF030008BF030008BF03000897
:1001400000000000000000000000000000000000AF
:10015000BF030008BF030008BF030008BF03000877
:10016000BF030008BF030008BF030008BF03000867
:10017000BF030008BF030008BF0300080000000021
:10018000BF030008BF030008BF030008BF03000847
:10019000BF030008BF030008BF030008BF03000837
:1001A000BF030008BF030008BF030008BF03000827
:1001B000BF030008BF030008BF030008BF03000817
:1001C000BF030008BF030008BF030008BF03000807
:1001D000BF030008BF030008BF030008BF030008F7
:1001E000BF030008BF030008BF030008BF030008E7
:1001F000BF030008BF030008BF030008BF030008D7
:10020000BF030008BF030008BF030008BF030008C6
:10021000BF030008BF030008BF030008BF030008B6
:10022000BF030008956400081D6700080000000077
:10023000BF030008BF03000800000000BF03000860
:10024000BF030008BF030008BF030008BF03000886
:10025000BF030008BF030008BF030008BF03000876
:10026000BF030008BF030008BF030008BF03000866
:10027000BF030008BF030008BF0300080000000020
:10028000BF030008BF030008BF0300080000000010
:1002900000000000BF03000800F002F800F06DF855
:1002A0000AA090E8000C82448344AAF10107DA45D1
:1002B00001D100F062F8AFF2090EBAE80F0013F0B6
:1002C000010F18BFFB1A43F00103184708B40100DF
:1002D00028B401000A444FF0000C10F8013B13F061
:1002E000070408BF10F8014B1D1108BF10F8015B8F
:1002F000641E05D010F8016B641E01F8016BF9D182
:1003000013F0080F1EBF10F8014BAD1C0C1B09D1D8
:100310006D1E58BF01F801CBFAD505E014F8016B4A
:1003200001F8016B6D1EF9D59142D6D370470000DC
:100330000023002400250026103A28BF78C1FBD8EE
:10034000520728BF30C148BF0B607047642900F0D6
:100350003181752900F02E81782900F067816329A9
:1003600000F02F84732900F03484002070471FB5FB
:1003700017F04BFB1FBD10B510BD00F045FC11463A
:10038000FFF7F5FF12F018FE00F063FC03B4FFF76F
:10039000F2FF03BC08F075FCDFF83000016841F49F
:1003A000700101600A4880470A480047FEE7FEE7FF
:1003B000FEE7FEE7FEE7FEE7FEE7FEE7FEE7FEE715
:1003C00005480649044A064B7047000088ED00E0E6
:1003D000C97A000899020008188C07241894072489
:1003E000188C0724704753EA020C00F069802DE94D
:1003F000F04B4FF00006002B1FBFB3FA83F503FA52
:1004000005F424FA05F65E4012BF1643B2FA82F5EF
:1004100002FA05F4C5F120051EBF22FA05FC44EAE4
:100420000C04203556EA044C4FEA144418BF641CEF
:100430004FF000084FF00009904271EB030C39D3E4
:10044000002919BFB1FA81F701FA07F6B0FA80F76F
:1004500000FA07F6C7F120071EBF20FA07FC46EA9C
:100460000C062037B6FBF4FCA7EB0507103F07F09E
:100470001F0BCBF120060CFA0BFB2CFA06F644BF3F
:10048000B3460026202FA4BF5E464FF0000B5BEA68
:10049000060C08BF4FF0010B19EB0B09ABFB027CFC
:1004A00048EB0608C01B06FB02CC0BFB03CC71EB30
:1004B0000C01C1E70B46024641464846BDE8F08BB9
:1004C00013B54FF000004FF00001AFF30080BDE81E
:1004D0001C4070470FB4044910B503AA029800F0FD
:1004E0007DFB10BC5DF814FB100000240FB41CB59C
:1004F000074B06AA7B4469460090059800F03FFB35
:100500000020694600F04EFB1CBC5DF814FB0000A7
:10051000AD06000070B5044685690068C10601D5C6
:10052000302600E02026C00707D070BDD4E90121A5
:1005300030469047206A401C20626D1EF6D570BD83
:1005400070B5044685690078C00707D170BDD4E94D
:10055000012120209047206A401C20626D1EF6D5A4
:1005600070BD70B50C460546012A05D02878800676
:1005700000D5EA69002302E0012305E05B1C9342F9
:1005800002D2E05C0028F9D1A869E618C01AA86177
:10059000286A184428622846FFF7BCFF04E0D5E922
:1005A000012114F8010B9047B442F8D32846FFF715
:1005B000C7FF70BD2DE9F04106460024106875297B
:1005C000314616A510D0AFF30080002802DA404271
:1005D00013A507E031688A0701D512A502E0490793
:1005E00004D511A5012401E0AFF3008000210A2207
:1005F00006F1240709E0B0FBF2FCB0FBF2F302FBCA
:100600001C00303078541846491C0028F3D123468A
:100610002A463046BDE8F04100F052BA0000000022
:100620002D0000002B0000002000000070B50446E3
:100630000D4621461068AFF300802188090502D5D8
:100640000F4A7A4402E00E4A7A440E32002104F145
:10065000240305E000F00F060009965D5E54491C76
:100660000028F7D120780023000704D5702D02D090
:1006700009B1022311322046BDE8704000F020BAD3
:1006800018AD01002DE9F05F894604464FF0000ADD
:10069000DFF874B1FB44C0F820A02046E168884729
:1006A000002874D0252806D0D4E901219047206A7B
:1006B000401C2062F1E700265F462046E16888473B
:1006C0002028054607DB312D05D2781910F8200CBB
:1006D00008B10643F1E7B00701D526F00406C4F8D7
:1006E0001CA00027C4F818A02A2D09D0284608F01D
:1006F000C1FA38B304EB8708303DC8F8185019E048
:1007000059F8041B204604EB87029161E168884791
:10071000012F054618D1E069002820DA26F02006CE
:100720001DE0D8F8180000EB800005EB40003038E1
:10073000C8F818002046E1688847054608F09AFA8C
:100740000028EED1012F0AD02E2D08D12046E168D5
:1007500088477F1C0546022F46F02006C4DBA069AF
:10076000002803DA404246F00106A061F00701D0FC
:1007700026F010066C2D0BD0682D09D04C2D39D0E9
:100780006A2D35D0742D35D07A2D33D016E038E06F
:10079000E1682F4620468847B842054609D16C2FAC
:1007A00026D04FF48060E16806432046884705461E
:1007B00004E06C2F1AD04FF4807006430DB3A5F1FE
:1007C0004100192802D8203546F400664A462946D9
:1007D000204626604E46FFF7B9FD80B101280BD0B8
:1007E000F61D26F0070000F1080956E74020E4E76F
:1007F0008020D8E70020D6E706F104094DE7284617
:1008000052E7206ABDE8F09FEEAC0100401ECAB27C
:1008100010F8011F8A4202D00029F9D10020704748
:1008200040EA010310B59B070FD1042A0DD310C86D
:1008300008C9121F9C42F8D020BA19BA884201D9BF
:10084000012010BD4FF0FF3010BD1AB1D30703D007
:10085000521C07E0002010BD10F8013B11F8014BBD
:100860001B1B07D110F8013B11F8014B1B1B01D1D9
:10087000921EF1D1184610BD40EA0103024630B580
:100880009B0710D14FF0013400E008C208C91D1BBE
:100890009D4315EAC41FF8D013F0FF0102F8011BB5
:1008A0000DD01B0AF8E711F8013B002B02F8013BC1
:1008B00005D011F8013B002B02F8013BF3D130BD0C
:1008C000032A40F2308010F0030C00F0158011F87C
:1008D000013BBCF1020F624498BF11F801CB00F854
:1008E000013B38BF11F8013BA2F1040298BF00F8A8
:1008F00001CB38BF00F8013B11F0030300F0258065
:10090000083AC0F0088051F8043B083A51F804CB8B
:10091000A0E80810F5E7121D5CBF51F8043B40F851
:10092000043BAFF30080D20724BF11F8013B11F85C
:1009300001CB48BF11F8012B24BF00F8013B00F8A0
:1009400001CB48BF00F8012B704710B5203AC0F02A
:100950000B80B1E81850203AA0E81850B1E81850C0
:10096000A0E81850BFF4F5AF5FEA027C24BFB1E8FD
:100970001850A0E8185044BF18C918C0BDE810406E
:100980005FEA827C24BF51F8043B40F8043B08BF77
:100990007047D20728BF31F8023B48BF11F8012B3E
:1009A00028BF20F8023B48BF00F8012B704702F037
:1009B000FF0343EA032242EA024200F002B84FF08A
:1009C00000020429C0F0128010F0030C00F01B801C
:1009D000CCF1040CBCF1020F18BF00F8012BA8BF2A
:1009E00020F8022BA1EB0C0100F00DB85FEAC17CEE
:1009F00024BF00F8012B00F8012B48BF00F8012BA1
:100A000070474FF0000200B51346944696462039D1
:100A100022BFA0E80C50A0E80C50B1F12001BFF4B7
:100A2000F7AF090728BFA0E80C5048BF0CC05DF81D
:100A300004EB890028BF40F8042B08BF704748BF6B
:100A400020F8022B11F0804F18BF00F8012B7047DF
:100A50004FF0013C50F8042B51F8043B9A4215D159
:100A6000A2EB0C03934313EACC130BD150F8042BE5
:100A700051F8043B9A4209D1A2EB0C03934313EAC9
:100A8000CC13E7D04FF00000704700BFD01A01BA76
:100A9000B1FA81F101F0180122FA01F0CB40C1F165
:100AA0002001DBB2C0B2C01A2CFA01F3D11A914373
:100AB00011EAC311E6D1704770477047704770471D
:100AC0002DE9F0470D4699469246044600F1240868
:100AD0000168880604D5E06921F01001216000E07A
:100AE0000120A84201DD471B00E00027A1697A1917
:100AF00002EB0900081AA0612078C00602D4204643
:100B0000FFF708FD002608E0D4E901211AF80600E5
:100B10009047206A401C761C20624E45F4DB20780A
:100B2000C0060AD52046FFF7F5FC06E0D4E901210E
:100B300030209047206A401C2062381EA7F1010730
:100B4000F4DC07E0D4E9012118F805009047206A99
:100B5000401C2062281EA5F10105F3DC2046FFF7AA
:100B6000EFFC2078000602D50220BDE8F0870120C6
:100B7000FBE7000001694A1C02610878704700B574
:100B80008FB0CDE901310021059105497944CDE9C6
:100B9000031011466846FFF775FD0FB000BD000059
:100BA000E5FFFFFF0A6802F8010B0A60704710B505
:100BB000436913B1AFF3008001E0FFF7D2FC0120DD
:100BC00010BD127800F124010A7000224A7001223F
:100BD000EDE711684FF0FF32E9E70000074B70B511
:100BE0000D467B44FFF7CBFF0446284600F008F88B
:100BF00010B14FF0FF3070BD204670BDF3AF000064
:100C0000007B00F080007047754600F02BF8AE4680
:100C100005006946534620F00700854618B020B508
:100C2000FFF7CEFBBDE820404FF000064FF0000775
:100C30004FF000084FF0000B21F00701AC46ACE884
:100C4000C009ACE8C009ACE8C009ACE8C0098D46F1
:100C5000704710B50446AFF300802046BDE8104051
:100C6000FFF794BB00487047B48B072400BFFEE732
:100C7000704710B50346D1E9000440EA04200C890E
:100C800040EA04400C7B40EA0460DC68D860002045
:100C900010BD10B50346D1E9000440EA04200C89D8
:100CA00040EA04400C7B40EA04609C6898600020A5
:100CB00010BD000010B50246486840F008008B687F
:100CC0001843CB6818430B6918434B6940EA43202B
:100CD0008B6940EA43301368024C2340184310608C
:100CE000002010BD8901F0FF70B50446B3F5804FB8
:100CF00013D1D1E9000540EA05108D6840EA0520CE
:100D00008D6928438D8940EA054054F82250064EEB
:100D10003540284344F8220003E06FF0704044F867
:100D20002200002070BD00000000F0CF70B5024628
:100D3000086852F8200020F001000E6842F82600F2
:100D40008868082801D1402500E00025486828432C
:100D50008E683043CE6830430E6930434E6930436D
:100D60008E693043CE6930430E6A30434E6A304359
:100D70008E6A3043CE6A40EA0603086B0343486B31
:100D80000343886B0343114C44F4801444F400146F
:100D900044F4E024086852F82000A04318430E6889
:100DA00042F82600086BB0F5801F07D1086828B10B
:100DB000106820F480100E6B30431060086818B182
:100DC00010684E6B30431060002070BD7FFB080040
:100DD00030B50346D1E9000540EA05108D6840EAC8
:100DE00005208D8940EA0545088A401E45EA0055E0
:100DF000087D801E45EA00608D692843551C53F824
:100E0000255005F040452843551C43F82500186837
:100E100000F48010B0F5801F0BD1586820F47004E6
:100E2000088A401E44EA0054586820F470002043A9
:100E30005860002030BD02460868B0B9D1E901030E
:100E40001843CB6818430B6918434B6918438B69E7
:100E50001843CB6918430B6A18434B6A184313684D
:100E60006FF30E031843106019E0D1E9070318432C
:100E70004B6A1843136823F4F84318431060D1E910
:100E800001031843CB6818430B6918434B69184397
:100E90008B69184353686FF30E03184350600020AA
:100EA00070470246506943F6FE73984340EA41009A
:100EB00050610020704710B50346D1E9000420437B
:100EC0008C68641E40EA4410CC6840EA44201C69E7
:100ED0006FF3150420431861002010BD30B50346A0
:100EE000FAB90868401E4C68641E40EA0414886819
:100EF000401E44EA0024C868401E44EA0034088AC0
:100F0000401E44EA0044888A401E44EA0054087E99
:100F1000401E44EA00609C6804F0704420439860DE
:100F200022E0C868401E0403888A401E44EA00503C
:100F30009C680E4D2C40204398600868401E4C6809
:100F4000641E40EA04148868401E44EA0024088AAB
:100F5000401E44EA0044087E401E44EA0060DC680B
:100F600004F070442043D860002030BDFF0F0FFF15
:100F70002DE9F041044600F057FD804614B90120E8
:100F8000BDE8F08194F83500022808D08020606523
:100F900000BF002084F8340000BF0120F0E7FE49C4
:100FA0002068884249D0FC4918312068884244D0E2
:100FB000F9493031206888423FD0F74948312068EC
:100FC00088423AD0F44960312068884235D0F249ED
:100FD00078312068884230D0EF49903120688842CB
:100FE0002BD0ED49A8312068884226D0EB492068F3
:100FF000884222D0E9491831206888421DD0E7494B
:1010000030312068884218D0E4494831206888424D
:1010100013D0E2496031206888420ED0DF49783130
:101020002068884209D0DD4990312068884204D088
:10103000DA49A8312068884201D1012000E000206F
:1010400068B12068006820F01E00216808602068F0
:10105000406920F0800021684861256806E020682A
:10106000006820F00E00216808602568CA492068E1
:10107000884270D0C8491831206888426BD0C64970
:1010800030312068884266D0C349483120688842A0
:1010900061D0C1496031206888425CD0BE49783156
:1010A0002068884257D0BC4990312068884252D08D
:1010B000B949A831206888424DD0B8492068884293
:1010C00049D0B64918312068884244D0B3493031FC
:1010D000206888423FD0B1494831206888423AD0E0
:1010E000AE4960312068884235D0AC4978312068FB
:1010F000884230D0A9499031206888422BD0A74936
:10110000A8312068884226D0A5492068884222D08C
:10111000A3491431206888421DD0A1492831206894
:10112000884218D09E493C312068884213D09C499F
:101130005031206888420ED0994964312068884235
:1011400009D0974978312068884204D094498C317D
:101150002068884201D1012000E0002028B1206EE3
:10116000006820F48070216E08608B4920688842F6
:1011700049D0894918312068884244D086493031A5
:10118000206888423FD084494831206888423AD05C
:10119000814960312068884235D07F4978312068A4
:1011A000884230D07C499031206888422BD07A49DF
:1011B000A8312068884226D078492068884222D009
:1011C00076491831206888421DD074493031206832
:1011D000884218D0714948312068884213D06F493D
:1011E0006031206888420ED06C497831206888428E
:1011F00009D06A4990312068884204D06749A831F3
:101200002068884206D12068006820F0010021682B
:10121000086005E02068006820F00100216808608F
:1012200011E000F001FCA0EB080005280BD92020FC
:101230006065032084F8350000BF002084F8340086
:1012400000BF01209CE6286800F001000028E8D1DA
:1012500051492068884249D04F4918312068884256
:1012600044D04D493031206888423FD04A49483106
:10127000206888423AD0484960312068884235D099
:10128000454978312068884230D043499031206800
:1012900088422BD04049A8312068884226D03F4957
:1012A0002068884222D03D491831206888421DD0EC
:1012B0003A4930312068884218D03849483120688E
:1012C000884213D035496031206888420ED03349B6
:1012D00078312068884209D03049903120688842AE
:1012E00004D02E49A8312068884201D1012000E0B5
:1012F000002040B1A66D94F85C0000F01F013F2073
:101300008840B06007E0A76D94F85C0000F01F0112
:1013100001208840786020492068884276D01E49A4
:1013200018312068884271D01B49303120688842CA
:101330006CD0194948312068884267D0164960311D
:101340002068884262D014497831206888425DD094
:10135000114990312068884258D00F49A83120683F
:10136000884253D00D49206888424FD00B4918312C
:10137000206888424AD0094930312068884245D0E7
:10138000064948312068884240D0044960312068CD
:1013900088423BD0014905E01000024010040240A1
:1013A000085402587831206888422FD02549206897
:1013B00088422BD0234918312068884226D0224900
:1013C0002068884222D020491431206888421DD0EC
:1013D0001D4928312068884218D01B493C312068BB
:1013E000884213D018495031206888420ED01649DF
:1013F00064312068884209D01349783120688842D6
:1014000004D011498C312068884201D1012000E0CC
:10141000002068B1D4E919104860E06E40B1E06E78
:10142000006820F48070E16E0860D4E91C10486008
:10143000012084F8350000BF002084F8340000BF8C
:1014400000BF9DE5A00402400854025870B5044650
:101450000CB9012070BD94F83500022803D080201B
:1014600060650120F6E7DC492068884249D0DA4906
:1014700018312068884244D0D749303120688842EA
:101480003FD0D5494831206888423AD0D2496031AE
:101490002068884235D0D04978312068884230D0E1
:1014A000CD499031206888422BD0CB49A8312068A3
:1014B000884226D0C9492068884222D0C7491831BD
:1014C000206888421DD0C54930312068884218D034
:1014D000C24948312068884213D0C0496031206831
:1014E00088420ED0BD4978312068884209D0BB4976
:1014F00090312068884204D0B849A83120688842D9
:1015000001D1012000E00020F0B3042084F8350070
:10151000B149206888424BD0AF49183120688842D1
:1015200046D0AD4930312068884241D0AA4948317F
:10153000206888423CD0A84960312068884237D072
:10154000A54978312068884232D0A349903120687B
:1015500088422DD0A049A8312068884228D09F49D0
:101560002068884224D09D491831206888421FD0C5
:101570009A493031206888421AD098494831206809
:10158000884215D0954900E020E06031206888420B
:101590000ED0924978312068884209D08F49903125
:1015A0002068884204D08D49A8312068884206D13D
:1015B0002068006820F001002168086009E12068C7
:1015C000006820F001002168086002E120680068DE
:1015D00020F00E00216808607F492068884249D0C9
:1015E0007D4918312068884244D07B4930312068D9
:1015F00088423FD078494831206888423AD07649BD
:1016000060312068884235D073497831206888423B
:1016100030D071499031206888422BD06E49A83172
:101620002068884226D06D492068884222D06B49C4
:101630001831206888421DD06849303120688842BE
:1016400018D0664948312068884213D06349603118
:10165000206888420ED0614978312068884209D0DC
:101660005E4990312068884204D05C49A8312068E6
:10167000884206D12068006820F0010021680860D7
:1016800005E02068006820F00100216808605249E8
:101690002068884270D050491831206888426BD049
:1016A0004D4930312068884266D04B494831206826
:1016B000884261D048496031206888425CD0464900
:1016C00078312068884257D0434990312068884259
:1016D00052D04149A831206888424DD03F49206806
:1016E000884249D03D4918312068884244D03B495E
:1016F0003031206888423FD03849483120688842DC
:101700003AD0364960312068884235D03349783143
:101710002068884230D031499031206888422BD0EF
:101720002E49A8312068884226D02D492068884259
:1017300022D02B491431206888421DD028492831F5
:101740002068884218D026493C312068884213D04E
:1017500023495031206888420ED0214964312068E5
:10176000884209D01E4978312068884204D01C493B
:101770008C312068884201D1012000E00020D8B1DE
:10178000206E006820F48070216E0860A56D94F8CA
:101790005C0000F01F01012088406860D4E9191046
:1017A0004860E06E40B1E06E006820F48070E16E49
:1017B0000860D4E91C104860012084F8350000BF9F
:1017C000002084F8340000BF206D10B12046216D48
:1017D000884700203EE6000010000240100402404E
:1017E0000854025810B50446A0B208F051FA10BDD2
:1017F0000348006840F0010001490860704700009C
:1018000020040058F8B502460B4600216F4DD7E082
:1018100001278F401E6806EA0704002C72D01E794B
:1018200006F00306012E04D01E7906F00306022EF0
:1018300013D190684F000326BE40B0434F00DE68CE
:10184000BE4030439060506801268E40B0431E7900
:10185000C6F300168E40304350601E7906F0030632
:10186000032E09D0D0684F000326BE40B0434F007E
:101870009E68BE403043D0601E7906F00306022EFB
:1018800013D1CF0802F1200656F827004E07F70EB5
:101890000F26BE40B0434F07FF0E1E69BE403043C7
:1018A000CF0802F1200646F8270010684F000326F3
:1018B000BE40B0431E7906F003064F00BE403043E1
:1018C00010605E6806F44036002E78D000BF404EAF
:1018D000366846F002063E4F3E603E46366806F0E9
:1018E0000206009600BF00BF3A4E8F0856F8270048
:1018F0008E07370F0F26BE40B043374EB24202D19B
:1019000000262EE05BE0354EB24201D1012628E0F0
:10191000334EB24201D1022623E0324EB24201D10F
:1019200003261EE0304EB24201D1042619E02F4EAC
:10193000B24201D1052614E02D4EB24201D1062655
:101940000FE02C4EB24201D107260AE02A4EB242E5
:1019500001D1082605E0294EB24201D1092600E056
:101960000A268F073F0FBE4030431A4E8F0846F8B5
:1019700027004FF0B0463068A0435E6806F480163A
:1019800006B120434FF0B04630607068A0435E68F7
:1019900006F4001606B120434FF0B0467060686848
:1019A000A0435E6806F4003606B1204368602868EC
:1019B000A0435E6806F4803606B120432860491CC7
:1019C0001E68CE40002E7FF423AFF8BD8000005883
:1019D000F444025808040058000002580004025859
:1019E00000080258000C0258001002580014025857
:1019F00000180258001C0258002002580024025807
:101A0000024613690B400BB1012000E00020704733
:101A10000AB1816101E00B048361704701480068ED
:101A2000000C70470010005C01480068704700001F
:101A30001C00002403480068034909780844014950
:101A4000086070471C0000242400002410B5052005
:101A500000F0A6FB02F08AFC10490968C1F30321DB
:101A60000F4A515C01F01F0120FA01F40B48006895
:101A700000F00F001146085C00F01F0024FA00F08F
:101A800008490860084804600F2000F00FF808B10A
:101A9000012010BD00F08EFA0020FAE71844025829
:101AA000BC7A0108080000240400002470B5044634
:101AB0001148007808B9012070BD0F4800784FF434
:101AC0007A71B1FBF0F00D490968B1FBF0F52846D9
:101AD00004F0CAF808B10120EEE7102C07D200226A
:101AE0002146501E00F01EFB0548046001E0012065
:101AF000E2E70020E0E700002400002404000024C6
:101B00002000002470B504460E46154600BF94F828
:101B1000A000012801D1022070BD012084F8A0009E
:101B200000BF022084F8A10005EB850101EBC5028E
:101B300004F1380101EB820034223146FEF705FF43
:101B40002A463146204604F0E1FC01202168486223
:101B500084F8A10000BF002084F8A00000BF00BFEF
:101B6000DAE7000070B504460CB9012070BD94F8A6
:101B7000A10028B9002084F8A000204600F07EF8DB
:101B8000022084F8A1002068806920F0704021685C
:101B90008861D4E901010843E168084321690843E9
:101BA0002168896908432168886120688068324912
:101BB000084021688860A08A050420688068A169BF
:101BC00029430843216888602068C0682A49084082
:101BD0002168C860A08B05042068C068216A294379
:101BE00008432168C86020680069234908402168CB
:101BF0000861A08C050420680069A16A2943084394
:101C000021680861206840691B49084021684861D3
:101C1000A08D050420684069216B29430843216891
:101C2000486194F83500050294F8360006042068EF
:101C3000C06A00F07F402168C86246EA050094F857
:101C4000341008432168C96A08432168C8622068C3
:101C5000406B40F00600216848632068806940F0CE
:101C60000100216888610020C4F8A400012084F8E4
:101C7000A10000207AE7000000F800F010B586B05F
:101C8000044600BF5D48006840F008005B490860FA
:101C90000846006800F00800009000BF00BF00BFC9
:101CA00056481038006840F0100054491039086058
:101CB0000846006800F01000009000BF00BF00BFA1
:101CC00000BF4E48001F006840F002004B49091F4A
:101CD00008600846006800F00200009000BF00BFE6
:101CE00000BF00BF00BF0846006840F02000086049
:101CF0000846006800F02000009000BF00BF00BF51
:101D000000BF00BF0846006840F4807008600846C5
:101D1000006800F48070009000BF00BF00BF00BFEB
:101D200000BF0846006840F48070086008460068FC
:101D300000F48070009000BF00BF00BF00BF00BF74
:101D40000846006840F0400008600846006800F05F
:101D50004000009000BF00BF00BF00BF0846006801
:101D600040F0800008600846006800F080000090A5
:101D700000BF00BF202001900120029003900320AB
:101D8000049001A91E48FFF73DFD4FF480600190CB
:101D90000220029000200390032004900E20059062
:101DA00001A91848FFF72EFD4FF40070019001A91A
:101DB0001548FFF727FD4FF48060019001A91248F4
:101DC000FFF720FD8020019001A91048FFF71AFDC0
:101DD0004FF40460019001A90C48FFF713FD4FF484
:101DE0007E40019001A90A48FFF70CFDF720019001
:101DF00001A90548FFF706FD06B010BDE4440258EE
:101E0000000402580014025800200258001802581A
:101E1000001C02582DE9F04104460E46174698462C
:101E200000BF94F8A000012802D10220BDE8F08193
:101E3000012084F8A00000BF022084F8A10008EB74
:101E4000880000EBC80104F1380000EB81052E602A
:101E5000A86A30446860AF60E86A3844E860424687
:101E60002946204604F052FB01202168486284F88C
:101E7000A10000BF002084F8A00000BF00BFD5E78C
:101E80002DE9F04104460E461746984600BF94F8E7
:101E9000A000012802D10220BDE8F081012084F8D1
:101EA000A00000BF022084F8A10008EB880000EB2E
:101EB000C80104F1380000EB8105286830446860EF
:101EC000A8683844E860AE62EF6242462946204680
:101ED00004F01CFB01202168486284F8A10000BFC7
:101EE000002084F8A00000BF00BFD5E74178154A64
:101EF00011600178F9B1121D41681160017B090779
:101F0000C27A41EA0261827A41EAC241427B41EAF5
:101F10008241827B41EA4241C27B41EA0241427AEC
:101F200041EA0221027A41EA420102781143054A5C
:101F30000832116005E00021024A121D1160121DD5
:101F40001160704798ED00E000BF00BF00BFBFF315
:101F50005F8F00BF00BF00BF0548006820F48030DD
:101F60000349086000200249703108607047000092
:101F700024ED00E040F001010D4A11600C49703978
:101F8000096841F480310A4A703A116000BF00BF0D
:101F900000BFBFF34F8F00BF00BF00BF00BF00BF37
:101FA00000BFBFF36F8F00BF00BF00BF70470000CE
:101FB00094ED00E07047000070B504460E461546EB
:101FC0000CB9012070BD94F8210028B9002084F8D4
:101FD0002000204600F022F8211D2068FEF76AFE4E
:101FE0003146D4E90002FEF754FE2946D4E9000246
:101FF000FEF73FFE2068006840F00400216808609A
:102000000548006840F0004003490860012084F85A
:1020100021000020D6E700000040005210B586B035
:10202000044600BF3148006840F480502F490860E2
:102030000846006800F48050009000BF00BF00BF59
:102040002A480C30006840F0080028490C3108602C
:102050000846006800F00800009000BF00BF00BF05
:102060000846006840F0100008600846006800F06C
:102070001000009000BF00BF00BF0846006840F09D
:10208000400008600846006800F04000009000BF73
:1020900000BF402001900020029001200390032007
:1020A000049001A91248FFF7ADFB4FF400700190B6
:1020B0000220029000200390032004900C20059041
:1020C00001A90C48FFF79EFB4DF63300019000205C
:1020D000039001A90648FFF795FB4FF4F0600190CB
:1020E00001A90548FFF78EFB06B010BDD444025885
:1020F000000C025800180258001002580146084609
:1021000000280DDB00BF00BF00F01F0301229A4032
:1021100043099B0003F1E023C3F8002100BF00BF87
:1021200000BF70472DE9F05F80460D46164606F069
:1021300085FD074639462A46334601F00700C0F1BF
:10214000070ABAF1040F02D94FF0040A01E0C0F106
:10215000070AD14600F1040ABAF1070F02D24FF084
:10216000000A01E0A0F1030AD4464FF0010A0AFA7E
:1021700009FAAAF1010A0AEA020A0AFA0CFA4FF06D
:10218000010B0BFA0CFBABF1010B0BEA030B4AEA58
:102190000B042146404606F059FDBDE8F09F0000C3
:1021A00000BF00F00702064B19684FF6FF03194005
:1021B000044B0B4343EA0221014B196000BF7047F7
:1021C0000CED00E00000FA050348006840F0807064
:1021D00001490860704700000C4802582DE9F84397
:1021E00004460D461746FFF71FFC8046A86900B15C
:1021F00000BFE86900B100BF286A00B100BF00BF9E
:1022000094F84000012802D10220BDE8F8830120A3
:1022100084F8400000BF94F84100012828D1002034
:102220006064022084F841004346002220212046B9
:10223000009704F0B2FB0646DEB90022294620468C
:1022400004F0B7FA686A78B94346012202212046B1
:10225000009704F0A2FB06465EB902202168C86020
:10226000012084F8410004E0012084F8410000E0EE
:10227000022600BF002084F8400000BF3046C4E7BB
:10228000F8B50446FFF7D0FB06460CB90120F8BDAF
:10229000206A402800D000BF94F8410038B9204699
:1022A00000F046F841F28831204600F063F92068DA
:1022B000006820F47061A068401E41EA0020216897
:1022C0000860A06C3346002220210090204604F0D4
:1022D00064FB054635BB2179E06840EA0160E169AD
:1022E0000843216A0843216809680F4A11400843DE
:1022F00021680860208A616941EA0040A1690843B9
:1023000021684968094A11400843216848602068EB
:10231000006840F00100216808600020606401202E
:1023200084F841002846B2E72FFFFF00FEF8E0FFE7
:1023300010B586B0044600BF5248006840F48040A3
:10234000504908600846006800F48040009000BFD3
:1023500000BF00BF00BF4B480C30006840F00200D7
:1023600048490C3108600846006800F002000090FF
:1023700000BF00BF00BF00BF00BF0846006840F0BC
:10238000020008600846006800F00200009000BFEC
:1023900000BF00BF00BF00BF0846006840F020003B
:1023A00008600846006800F02000009000BF00BFF1
:1023B00000BF00BF00BF0846006840F02000086072
:1023C0000846006800F02000009000BF00BF00BF7A
:1023D00000BF00BF0846006840F0200008600846C3
:1023E000006800F02000009000BF00BF00BF00BFE9
:1023F00000BF0846006840F02000086008460068FA
:1024000000F02000009000BF00BF00BF40200190FE
:102410000220029001200390032004900A200590DE
:1024200001A91948FFF7EEF94FF4807001900020E0
:10243000039001A91548FFF7E5F94FF400700190EA
:102440000020039001A91148FFF7DCF90420019056
:1024500002200290002003900320049009200590A0
:1024600001A90948FFF7CEF94020019001A90748CA
:10247000FFF7C8F98020019001A90448FFF7C2F9CD
:1024800006B010BDD444025800040258001402588B
:102490002DE9F84F04460E4617460025FFF7C4FA0B
:1024A00080462068D0F81890206800F1200A00BF0C
:1024B00094F84000012802D10220BDE8F88F0120E5
:1024C00084F8400000BF94F8410001284AD1002060
:1024D0006064002E40D0222084F84100206800690A
:1024E000401CA06320680069401C6063266320686C
:1024F000406920F0406040F08060216848612068B9
:10250000C0F8189013E043460122062120460097A8
:1025100004F043FA054605B10CE09AF80000216B7F
:102520000870206B401C2063A06B401EA063A06B52
:102530000028E8D100BF5DB94346012202212046B0
:10254000009704F02AFA054615B902202168C860F0
:10255000012084F8410006E0606C40F008006064EF
:10256000012500E0022500BF002084F8400000BFE4
:102570002846A2E7816470472DE9F84304460E46D9
:1025800017460025FFF750FA8046206800F1200921
:1025900000BF94F84000012802D10220BDE8F88372
:1025A000012084F8400000BF94F84100012845D183
:1025B00000206064002E3BD0122084F84100206887
:1025C0000069401CE06220680069401CA0626662ED
:1025D0002068406920F040602168486113E043466C
:1025E000012204212046009704F0D7F9054605B1E1
:1025F0000CE0606A007889F80000606A401C606244
:10260000E06A401EE062E06A0028E8D100BF5DB9E0
:102610004346012202212046009704F0BEF90546F8
:1026200015B902202168C860012084F8410006E045
:10263000606C40F008006064012500E0022500BFE6
:10264000002084F8400000BF2846A7E710B501F03D
:1026500043FE05490968C1F30211044A515C01F0C7
:102660001F01C84010BD000020440258BC7A010878
:1026700070B50146844D2D6805F00303824D2D6829
:10268000C5F30510804D2D1D2D6805F001047E4D0C
:102690000C352D68C5F3CC0515FB04F501EE105A79
:1026A000B8EE411AF0EE410A00286FD023B1012B99
:1026B0004ED0022B6BD16BE0734D283D2D68C5F3D6
:1026C00040153DB3704D283D2D68C5F3C1066F4DD3
:1026D00025FA06F201EE102AF8EE411A01EE100A70
:1026E000B8EE411A81EE812A9FED691AC0EE811A77
:1026F000654D08352D68C5F3080501EE105AB8EE92
:10270000411A31EE811AF7EE001A31EE211A22EE4B
:10271000010A1CE001EE100AB8EE411ADFED5D1A65
:1027200081EE812A9FED5A1AC0EE811A564D083566
:102730002D68C5F3080501EE105AB8EE411A31EEC6
:10274000811AF7EE001A31EE211A22EE010A5BE03F
:1027500001EE100AB8EE411ADFED4F1A81EE812A20
:102760009FED4B1AC0EE811A474D08352D68C5F311
:10277000080501EE105AB8EE411A31EE811AF7EE53
:10278000001A31EE211A22EE010A3DE077E01DE049
:1027900001EE100AB8EE411A9FED402AC2EE011A6E
:1027A0009FED3B1A80EE812A374D08352D68C5F321
:1027B000080501EE105AB8EE411A32EE011AB7EED2
:1027C000002A31EE021A21EE810A1DE001EE100A04
:1027D000B8EE411ADFED2F1A81EE812A9FED2C1AF7
:1027E000C0EE811A284D08352D68C5F3080501EEA5
:1027F000105AB8EE411A31EE811AF7EE001A31EE96
:10280000211A22EE010A00BF00BF1F4D08352D68B6
:10281000C5F3462501EE105AB8EE411AF7EE001A3C
:1028200031EE211AC0EE011ABCEEE11A81ED001A58
:10283000154D08352D68C5F3064501EE105AB8EE62
:10284000411AF7EE001A31EE211AC0EE011ABCEE61
:10285000E11A81ED011A0C4D08352D68C5F30665A6
:1028600001EE105AB8EE411AF7EE001A31EE211AB5
:10287000C0EE011ABCEEE11A81ED021A03E0002558
:102880000D604D608D6070BD284402580090D003EB
:10289000000000460024744C0024744A20BCBE4B47
:1028A00070B50146844D2D6805F00303824D2D68F7
:1028B000C5F30530804D2D1D2D68C5F300147E4DE8
:1028C00014352D68C5F3CC0515FB04F501EE105A3F
:1028D000B8EE411AF0EE410A00286FD023B1012B67
:1028E0004ED0022B6BD16BE0734D283D2D68C5F3A4
:1028F00040153DB3704D283D2D68C5F3C1066F4DA1
:1029000025FA06F201EE102AF8EE411A01EE100A3D
:10291000B8EE411A81EE812A9FED691AC0EE811A44
:10292000654D10352D68C5F3080501EE105AB8EE57
:10293000411A31EE811AF7EE001A31EE211A22EE19
:10294000010A1CE001EE100AB8EE411ADFED5D1A33
:1029500081EE812A9FED5A1AC0EE811A564D10352C
:102960002D68C5F3080501EE105AB8EE411A31EE94
:10297000811AF7EE001A31EE211A22EE010A5BE00D
:1029800001EE100AB8EE411ADFED4F1A81EE812AEE
:102990009FED4B1AC0EE811A474D10352D68C5F3D7
:1029A000080501EE105AB8EE411A31EE811AF7EE21
:1029B000001A31EE211A22EE010A3DE077E01DE017
:1029C00001EE100AB8EE411A9FED402AC2EE011A3C
:1029D0009FED3B1A80EE812A374D10352D68C5F3E7
:1029E000080501EE105AB8EE411A32EE011AB7EEA0
:1029F000002A31EE021A21EE810A1DE001EE100AD2
:102A0000B8EE411ADFED301A81EE812A9FED2C1AC3
:102A1000C0EE811A284D10352D68C5F3080501EE6A
:102A2000105AB8EE411A31EE811AF7EE001A31EE63
:102A3000211A22EE010A00BF00BF1F4D10352D687C
:102A4000C5F3462501EE105AB8EE411AF7EE001A0A
:102A500031EE211AC0EE011ABCEEE11A81ED001A26
:102A6000154D10352D68C5F3064501EE105AB8EE28
:102A7000411AF7EE001A31EE211AC0EE011ABCEE2F
:102A8000E11A81ED011A0C4D10352D68C5F306656C
:102A900001EE105AB8EE411AF7EE001A31EE211A83
:102AA000C0EE011ABCEEE11A81ED021A03E0002526
:102AB0000D604D608D6070BD284402580090D003B9
:102AC000000000460024744C0024744A20BCBE4B15
:102AD00070B50146844D2D6805F00303824D2D68C5
:102AE000C5F30550804D2D1D2D68C5F300247E4D86
:102AF0001C352D68C5F3CC0515FB04F501EE105A05
:102B0000B8EE411AF0EE410A00286FD023B1012B34
:102B10004ED0022B6BD16BE0734D283D2D68C5F371
:102B200040153DB3704D283D2D68C5F3C1066F4D6E
:102B300025FA06F201EE102AF8EE411A01EE100A0B
:102B4000B8EE411A81EE812A9FED691AC0EE811A12
:102B5000654D18352D68C5F3080501EE105AB8EE1D
:102B6000411A31EE811AF7EE001A31EE211A22EEE7
:102B7000010A1CE001EE100AB8EE411ADFED5D1A01
:102B800081EE812A9FED5A1AC0EE811A564D1835F2
:102B90002D68C5F3080501EE105AB8EE411A31EE62
:102BA000811AF7EE001A31EE211A22EE010A5BE0DB
:102BB00001EE100AB8EE411ADFED4F1A81EE812ABC
:102BC0009FED4B1AC0EE811A474D18352D68C5F39D
:102BD000080501EE105AB8EE411A31EE811AF7EEEF
:102BE000001A31EE211A22EE010A3DE077E01DE0E5
:102BF00001EE100AB8EE411A9FED402AC2EE011A0A
:102C00009FED3B1A80EE812A374D18352D68C5F3AC
:102C1000080501EE105AB8EE411A32EE011AB7EE6D
:102C2000002A31EE021A21EE810A1DE001EE100A9F
:102C3000B8EE411ADFED301A81EE812A9FED2C1A91
:102C4000C0EE811A284D18352D68C5F3080501EE30
:102C5000105AB8EE411A31EE811AF7EE001A31EE31
:102C6000211A22EE010A00BF00BF1F4D18352D6842
:102C7000C5F3462501EE105AB8EE411AF7EE001AD8
:102C800031EE211AC0EE011ABCEEE11A81ED001AF4
:102C9000154D18352D68C5F3064501EE105AB8EEEE
:102CA000411AF7EE001A31EE211AC0EE011ABCEEFD
:102CB000E11A81ED011A0C4D18352D68C5F3066532
:102CC00001EE105AB8EE411AF7EE001A31EE211A51
:102CD000C0EE011ABCEEE11A81ED021A03E00025F4
:102CE0000D604D608D6070BD284402580090D00387
:102CF000000000460024744C0024744A20BCBE4BE3
:102D00002DE9F0418AB00646B6F5807F70D1FE48C5
:102D1000006800F00708B8F1050F65D2DFE808F099
:102D2000031221623000F8485038006800F000704B
:102D3000B0F1007F04D107A8FFF79AFC089C00E0DF
:102D4000002453E0F0485038006800F00060B0F113
:102D5000006F04D104A8FFF7A3FD049C00E0002449
:102D600044E0E9485038006800F00050B0F1005FDE
:102D700004D101A8FFF7ACFE019C00E0002435E07F
:102D8000E148001F006800F04055DF4850380068F7
:102D900000F00400042809D145B9DB485038006828
:102DA000C0F3C101D94820FA01F41AE0D6485038DE
:102DB000006800F48070B0F5807F04D1B5F1805FC9
:102DC00001D1D34C0DE0D0485038006800F40030F9
:102DD000B0F5003F04D1B5F1005F01D1CD4C00E06A
:102DE000002403E0CC4C01E0002400BF24E3FFE713
:102DF000B6F5007F7AD1C448006800F4E078B8F1F5
:102E0000800F2CD006DCB8F1000F0AD0B8F1400FCB
:102E100069D115E0B8F1C00F63D0B8F5807F62D1F9
:102E20002CE0B9485038006800F00070B0F1007F25
:102E300004D107A8FFF71CFC089C00E0002454E024
:102E4000B1485038006800F00060B0F1006F04D164
:102E500004A8FFF725FD049C00E0002445E0AA48F3
:102E60005038006800F00050B0F1005F04D101A8B4
:102E7000FFF72EFE019C00E0002436E0A248001F70
:102E8000006800F04055A0485038006800F0040089
:102E9000042809D145B99C4850380068C0F3C101E5
:102EA0009A4820FA01F41BE097485038006800F473
:102EB0008070B0F5807F04D1B5F1805F01D1944C72
:102EC0000EE091485038006800F40030B0F5003F43
:102ED00005D1B5F1005F02D18E4C01E006E000247F
:102EE00003E08D4C01E0002400BFA5E2B6F5806F41
:102EF0007BD185480830006800F46008B8F5800F81
:102F00002CD006DCB8F1000F0AD0B8F5001F69D14B
:102F100015E0B8F5C00F63D0B8F5000F62D12CE012
:102F200079485038006800F00070B0F1007F04D19B
:102F300007A8FFF79DFB089C00E0002454E07248BE
:102F40005038006800F00060B0F1006F04D104A8B0
:102F5000FFF7A6FC049C00E0002445E06A485038D6
:102F6000006800F00050B0F1005F04D101A8FFF745
:102F7000AFFD019C00E0002436E06348001F0068BC
:102F800000F0405560485038006800F00400042804
:102F900009D145B95C4850380068C0F3C1015B48AD
:102FA00020FA01F41BE058485038006800F48070A3
:102FB000B0F5807F04D1B5F1805F01D1544C0EE0B3
:102FC00051485038006800F40030B0F5003F05D19A
:102FD000B5F1005F02D14F4C01E006E0002403E0B0
:102FE0004D4C01E0002400BF26E2B6F5006F7BD116
:102FF00045480830006800F0E068B8F1007F2CD048
:1030000006DCB8F1000F0AD0B8F1807F69D115E075
:10301000B8F1407F63D0B8F1806F62D12CE03A48BC
:103020005038006800F00070B0F1007F04D107A8AC
:10303000FFF71EFB089C00E0002454E032485038A3
:10304000006800F00060B0F1006F04D104A8FFF741
:1030500027FC049C00E0002445E02B485038006821
:1030600000F00050B0F1005F04D101A8FFF730FD7F
:10307000019C00E0002436E02348001F006800F0B7
:10308000405521485038006800F00400042809D158
:1030900045B91D4850380068C0F3C1011B4820FAEB
:1030A00001F41BE018485038006800F48070B0F557
:1030B000807F04D1B5F1805F01D1154C0EE012483C
:1030C0005038006800F40030B0F5003F05D1B5F18C
:1030D000005F02D10F4C01E006E0002403E00E4C3B
:1030E00001E0002400BFA7E1B6F5805F7CD106486F
:1030F000006800F4E047B7F5005F32D00EDCA7B1FE
:10310000B7F5805F6DD11EE0504402580090D003A7
:1031100000093D0040787D010080BB00B7F5405FAD
:103120005DD0B7F5804F5CD129E0C548006800F05C
:103130000070B0F1007F04D107A8FFF799FA089C4E
:1031400000E000244FE0BE48006800F00060B0F1ED
:10315000006F04D104A8FFF7A3FB049C00E0002447
:1031600041E0B748006800F00050B0F1005F04D1C2
:1031700001A8FFF7ADFC019C00E0002433E0B0485B
:103180004C30006800F04055AD48006800F0040085
:10319000042808D13DB9AA480068C0F3C101A94874
:1031A00020FA01F41AE0A648006800F48070B0F537
:1031B000807F04D1B5F1805F01D1A34C0EE0A0481F
:1031C000006800F40030B0F5003F06D1B5F1005FB3
:1031D00003D19E4C02E007E003E0002403E09C4C96
:1031E00001E0002400BF27E1B6F5002F59D1944833
:1031F0005830006800F4403737B1B7F5803F11D040
:10320000B7F5003F4AD11BE08D48006800F0006030
:10321000B0F1006F04D104A8FFF742FB049C00E06A
:1032200000243DE08648006800F00050B0F1005FE7
:1032300004D101A8FFF74CFC039C00E000242FE020
:103240007F484C30006800F040557D48006800F031
:103250000400042808D13DB979480068C0F3C101D1
:10326000784820FA01F418E07548006800F480708E
:10327000B0F5807F04D1B5F1805F01D1724C0CE0D4
:103280006F48006800F40030B0F5003F04D1B5F19C
:10329000005F01D16D4C00E0002401E0002400BF7C
:1032A000CAE0B6F5803F28D165484C30006800F48C
:1032B00080371FB1B7F5803F1CD10DE06048006832
:1032C00000F00070B0F1007F04D107A8FFF7D0F93B
:1032D000089C00E000240FE05948006800F00060FE
:1032E000B0F1006F04D104A8FFF7DAFA069C00E001
:1032F000002401E0002400BF9EE0B6F5804F60D1BD
:103300004F485830006800F0E047B7F1405F2FD0D9
:1033100007DC6FB1B7F1805F0ED0B7F1005F4DD120
:1033200018E0B7F1804F33D0B7F1A04F46D13AE063
:10333000FFF78CF9044643E04148006800F0006064
:10334000B0F1006F04D104A8FFF7AAFA059C00E0D1
:10335000002435E03A48006800F00050B0F1005F0A
:1033600004D101A8FFF7B4FB029C00E0002427E091
:103370003348006800F00400042807D13048006892
:10338000C0F3C1012F4820FA01F400E0002417E047
:103390002B48006800F48070B0F5807F01D12A4C82
:1033A00000E000240CE02648006800F40030B0F58E
:1033B000003F01D1254C00E0002401E0002400BFC3
:1033C0003AE0B6F5004F36D11D485030006800F0A5
:1033D000405737B1B7F1805F0ED0B7F1005F27D10A
:1033E00018E01748006800F40030B0F5003F01D144
:1033F000164C00E000241DE01148006800F0007049
:10340000B0F1007F04D107A8FFF732F9089C00E073
:1034100000240FE00A48006800F00060B0F1006F7F
:1034200004D104A8FFF73CFA059C00E0002401E069
:10343000002400BF00E0002420460AB0BDE8F0816F
:10344000004402580090D00300093D0040787D01FF
:103450000080BB002DE9F04104460025A846206805
:1034600000F00060B0F1006F30D1606E48B1B0F58F
:10347000801F0DD0B0F5001F10D0B0F5401F15D142
:1034800013E0F948006840F40030F74908600FE0A5
:103490000221201D03F0A8FA054609E0022104F1EB
:1034A000240003F053FB054602E001E0012500BFC4
:1034B00000BF55B9EC482430006820F44010616E1C
:1034C0000843E9492431086000E0A846208800F458
:1034D0008070B0F5807F2DD1606D05281AD2DFE8AD
:1034E00000F0030A10171800DF48006840F40030AD
:1034F000DD49086010E00021201D03F075FA054643
:103500000AE0002104F1240003F020FB054603E05B
:1035100002E001E0012500BF00BF55B9D2482430C8
:10352000006820F00700616D0843CF49243108602E
:1035300000E0A846208800F40070B0F5007F33D189
:10354000A06D802817D003DC40B140281CD10CE0CE
:10355000C02817D0B0F5807F16D114E0C2480068AB
:1035600040F40030C049086010E00021201D03F045
:103570003BFA05460AE0002104F1240003F0E6FAD4
:10358000054603E002E001E0012500BF00BF55B998
:10359000B5482430006820F4E070A16D0843B249BA
:1035A0002431086000E0A846208800F48060B0F56F
:1035B000806F38D1D4F8A400B0F5800F19D004DCA6
:1035C00050B1B0F5001F1DD10DE0B0F5C00F17D000
:1035D000B0F5000F16D114E0A348006840F40030A5
:1035E000A149086010E00021201D03F0FDF9054607
:1035F0000AE0002104F1240003F0A8FA054603E0E4
:1036000002E001E0012500BF00BF5DB996482C3003
:10361000006820F46000D4F8A410084392492C31CB
:10362000086000E0A846208800F40060B0F5006F54
:1036300038D1D4F8A800B0F1007F19D004DC50B123
:10364000B0F1807F1DD10DE0B0F1407F17D0B0F117
:10365000806F16D114E08448006840F4003082493D
:10366000086010E00021201D03F0BEF905460AE0C5
:10367000002104F1240003F069FA054603E002E0AA
:1036800001E0012500BF00BF5DB977482C3000681C
:1036900020F0E060D4F8A810084373492C3108608A
:1036A00000E0A846206800F00070B0F1007F27D14C
:1036B000A06CA0B1102804D0202809D030280FD148
:1036C0000CE06948006840F400306749086009E090
:1036D0000221201D03F088F9054603E002E001E025
:1036E000012500BF00BF55B95F482030006820F0B9
:1036F0003000A16C08435C492031086000E0A84616
:10370000208800F48050B0F5805F36D1E06DB0F5D0
:10371000005F19D004DC50B1B0F5805F1DD10DE021
:10372000B0F5405F17D0B0F5804F16D114E04E4889
:10373000006840F400304C49086010E00021201D72
:1037400003F052F905460AE0002104F1240003F0D9
:10375000FDF9054603E002E001E0012500BF00BFDE
:1037600055B941482430006820F4E040E16D084339
:103770003D492431086000E0A846208800F400504C
:10378000B0F5005F34D1206EB0F5403F1DD007DCAE
:1037900068B1B0F5803F0BD0B0F5003F18D10DE017
:1037A000B0F5802F12D0B0F5A02F11D10FE011E0AD
:1037B0000121201D03F018F905460BE0012104F159
:1037C000240003F0C3F9054604E003E002E001E051
:1037D000012500BF00BF55B923482430006820F4FC
:1037E000E020216E084320492431086000E0A8460B
:1037F000208800F48040B0F5804F38D1D4F8AC0078
:10380000B0F1405F1DD007DC68B1B0F1805F0BD034
:10381000B0F1005F18D10DE0B0F1804F12D0B0F1DF
:10382000A04F11D10FE011E00121201D03F0DCF8C1
:1038300005460BE0012104F1240003F087F9054659
:1038400004E003E002E001E0012500BF00BF6DB924
:1038500005482C30006820F0E040D4F8AC10084354
:1038600001492C31086002E02C440258A846208807
:1038700000F40040B0F5004F26D1E06E98B1B0F1F1
:10388000805F03D0B0F1005F0ED106E0F948006818
:1038900040F40030F749086008E00121201D03F0E2
:1038A000A3F8054602E001E0012500BF00BF55B9BD
:1038B000F0482430006820F04050E16E0843ED49A4
:1038C0002431086000E0A846206800F08070B0F164
:1038D000807F27D1606CA0B1012804D0022809D0D4
:1038E00003280FD10CE0E348006840F40030E149C0
:1038F000086009E00221201D03F076F8054603E088
:1039000002E001E0012500BF00BF55B9D9482030D1
:10391000006820F00300616C0843D649203108603C
:1039200000E0A846206800F48000B0F5800F7DD14B
:10393000D148006840F48070CF490860FEF774F801
:10394000064606E0FEF770F8801B642801D90325BF
:1039500005E0C948006800F480700028F2D000BF7C
:1039600085BBC4484430006800F44070B4F8B0101F
:1039700001F44071884213D0BE484430006820F4FE
:103980004077BC484430006840F48030B949443145
:1039900008600846006820F4803008600846076028
:1039A000D4F8B000B0F5807F15D1FEF73DF806469B
:1039B00009E0FEF739F8801B41F28831884202D9CC
:1039C000032507E038E0AB4844300068C0F340000E
:1039D0000028EED000BF55BB00BFB4F8B00000F423
:1039E0004070B0F5407F0ED1A2481C38006820F42A
:1039F0007C51A24AD4F8B000104041EA10109D4911
:103A00001C39086007E09B481C38006820F47C5093
:103A100098491C390860974844300068B4F8B010E1
:103A2000C1F30B0108439349443101E005E001E093
:103A3000086002E0A84600E0A846207800F00100F7
:103A400068B3A06F182819D005DC48B1082808D041
:103A5000102816D10BE0202811D0282811D10FE012
:103A600011E00121201D02F0BFFF05460BE00121FE
:103A700004F1240003F06AF8054604E003E002E0E4
:103A800001E0012500BF00BF55B97A482830006821
:103A900020F03800A16F084376492831086000E023
:103AA000A846207800F00200022828D1606F06287E
:103AB00015D2DFE800F003040A11121311E001210E
:103AC000201D02F091FF05460BE0012104F12400C6
:103AD00003F03CF8054604E003E002E001E00125C4
:103AE00000BF00BF55B963482830006820F00700C8
:103AF000616F08435F492831086000E0A8462078DC
:103B000000F0040004282AD1D4F89000062815D229
:103B1000DFE800F003040A11121311E00121201D57
:103B200002F062FF05460BE0012104F1240003F0DE
:103B30000DF8054604E003E002E001E0012500BFC6
:103B400000BF5DB94B482C30006820F00700D4F866
:103B50009010084347492C31086000E0A8462078BF
:103B600000F02000202836D1D4F88C00B0F1405F5E
:103B70001DD007DC68B1B0F1805F0BD0B0F1005F01
:103B800018D10DE0B0F1804F12D0B0F1A04F11D19B
:103B90000FE011E00021201D02F026FF05460BE09A
:103BA000022104F1240002F0D1FF054604E003E005
:103BB00002E001E0012500BF00BF5DB92D482830BB
:103BC000006820F0E040D4F88C10084329492831DF
:103BD000086000E0A846207800F04000402836D178
:103BE000D4F89800B0F5406F1DD007DC68B1B0F58F
:103BF000806F0BD0B0F5006F18D10DE0B0F5805F8D
:103C000012D0B0F5A05F11D10FE011E00021201D0E
:103C100002F0EAFE05460BE0022104F1240002F066
:103C200095FF054604E003E002E001E0012500BF46
:103C300000BF5DB90F482C30006820F4E050D4F884
:103C4000981008430B492C31086000E0A846207802
:103C500000F0800080283AD1D4F89C00B0F5C04F25
:103C600023D00DDC98B1B0F5005F11D0B0F5804FD6
:103C70001ED113E02C44025800480258FFFCFF0FED
:103C8000B0F5004F12D0B0F5204F11D10FE011E088
:103C90000021201D02F0A8FE05460BE0022104F1E0
:103CA000240002F053FF054604E003E002E001E0D7
:103CB000012500BF00BF4DB9BE48006820F4604038
:103CC000D4F89C100843BB49086000E0A84620785F
:103CD00000F00800082817D1D4F88000B0F5805F04
:103CE00007D1022104F1240002F030FF08B14FF0A7
:103CF0000108B048001F006820F44050D4F880103C
:103D00000843AC49091F0860207800F01000102813
:103D100015D1D4F89400B0F5807F07D1022104F1C9
:103D2000240002F013FF08B14FF00108A148006819
:103D300020F44070D4F8941008439E49086020682D
:103D400000F40020B0F5002F26D1D4F8A00030B147
:103D5000B0F5803F09D0B0F5003F0ED10CE0002156
:103D6000201D02F041FE054609E0022104F1240075
:103D700002F0ECFE054602E001E0012500BF00BFB5
:103D80004DB98C48006820F44030D4F8A0100843A6
:103D90008849086000E0A846206800F48020B0F55B
:103DA000802F2DD1D4F88400B0F5801F06D0B0F557
:103DB000001F0CD0B0F5401F11D10FE07D482C380A
:103DC000006840F400307B492C39086009E001218B
:103DD00004F1240002F0BAFE054602E001E00125EC
:103DE00000BF00BF5DB97348001F006820F4401099
:103DF000D4F8841008436F49091F086000E0A84602
:103E0000206800F48030B0F5803F24D1E06C18B118
:103E1000B0F5803F0FD108E066482C38006840F4C8
:103E2000003064492C39086007E00221201D02F0AF
:103E3000DBFD054601E0012500BF00BF55B95D4827
:103E40000C38006820F48030E16C084359490C3983
:103E5000086000E0A846206800F00050B0F1005F64
:103E600007D1022104F1240002F070FE08B14FF0E6
:103E70000108206800F40030B0F5003F27D1E06F62
:103E8000A0B1B0F5807F06D0B0F5007F0CD0B0F5C2
:103E9000407F0CD109E047482C38006840F40030DE
:103EA00044492C39086004E003E002E001E0012508
:103EB00000BF00BF55B93F48001F006820F44070A4
:103EC000E16F08433B49091F086000E0A8462068ED
:103ED00000F48010B0F5801F09D13648083800681A
:103EE00020F00040216F08433249083908602068FB
:103EF00000F08050B0F1805F0AD12E484838006849
:103F000020F48040D4F8B41008432A4948390860A6
:103F1000206800F40010B0F5001F09D125480838CA
:103F2000006820F08070A16E0843224908390860BB
:103F3000206800F08040B0F1804F11D100BF1D48D3
:103F40004838006820F400401A494839086008469B
:103F50000068D4F8B810084316494839086000BF13
:103F6000206800F00040B0F1004F09D111480C3832
:103F7000006820F04050216D08430E490C3908605C
:103F8000206800F40000B0F5000F0AD10948001FB6
:103F9000006820F44000D4F8881008430549091F40
:103FA0000860B8F1000F02D10020BDE8F0810120C7
:103FB000FBE70000584402582DE9F04104460D4645
:103FC00014B90120BDE8F081BD48006800F00F0081
:103FD000A8420ED2BA48006820F00F002843B84922
:103FE00008600846006800F00F00A84201D00120D8
:103FF000E8E7207800F0040004280ED1B1492069D8
:10400000096801F07001884207D9AE48006820F0C5
:10401000700021690843AB490860207800F008006F
:10402000082811D1A749091D6069096801F07001CC
:10403000884209D9A348001D006820F0700061691A
:104040000843A049091D0860207800F010001028DE
:1040500011D19C49091DA069096801F4E0618842F9
:1040600009D99848001D006820F4E060A169084360
:104070009449091D0860207800F02000202811D103
:1040800090490831E069096801F07001884209D956
:104090008C480830006820F07000E16908438949C5
:1040A00008310860207800F0020002280ED185490E
:1040B000E068096801F00F01884207D9814800686B
:1040C00020F00F00E16808437E490860207800F086
:1040D0000100002850D07B48006820F47060A1687F
:1040E0000843784908606068022807D17548183885
:1040F0000068C0F34040F8B9012063E76068032816
:1041000007D1704818380068C0F34060A0B901209A
:1041100058E76068012807D16A4818380068C0F37A
:10412000002048B901204DE7664818380068C0F300
:10413000800008B9012045E762480838006820F08F
:104140000700616808435F4908390860FDF76CFCA7
:10415000064608E0FDF768FC801B41F28831884282
:1041600001D903202EE757480838006800F03800CE
:104170006168B0EBC10FEDD1207800F00200022899
:104180000ED15049E068096801F00F01884207D25A
:104190004C48006820F00F00E16808434949086076
:1041A0004748006800F00F00A8420ED94448006854
:1041B00020F00F002843424908600846006800F0DC
:1041C0000F00A84201D00120FCE6207800F0040096
:1041D00004280ED13B492069096801F0700188422A
:1041E00007D23848006820F070002169084335493B
:1041F0000860207800F00800082811D13149091D15
:104200006069096801F07001884209D22D48001DDB
:10421000006820F07000616908432A49091D0860A0
:10422000207800F01000102811D12649091DA0693E
:10423000096801F4E061884209D22248001D006843
:1042400020F4E060A16908431E49091D0860207838
:1042500000F02000202811D11A490831E0690968CE
:1042600001F07001884209D216480830006820F039
:104270007000E169084313490831086000F076F8DE
:1042800010490968C1F303210F4A515C01F01F0175
:1042900020FA01F70B48006800F00F001146085C97
:1042A00000F01F0027FA00F008490860084807607E
:1042B00008480068FDF7FAFB8046404682E60000A9
:1042C0000020005218440258BC7A0108080000245B
:1042D000040000242000002410B500F047F80D4928
:1042E0000968C1F303210C4A515C01F01F0120FA57
:1042F00001F40848006800F00F001146085C00F067
:104300001F0024FA00F005490860054804600846CB
:10431000006810BD18440258BC7A01080800002447
:104320000400002400B5FFF7D7FF05490968C1F371
:104330000211044A515C01F01F01C84000BD000099
:104340001C440258BC7A010800B5FFF7C5FF0549B7
:104350000968C1F30221044A515C01F01F01C84001
:1043600000BD00001C440258BC7A0108F0B5824E22
:10437000366806F0380636B1082E15D0102E15D046
:10438000182E7DD114E07C4E103E3668C6F34016E0
:1043900046B1794E103E3668C6F3C107774E26FA0D
:1043A00007F000E07548E5E07548E3E07548E1E0B6
:1043B000714E1836366806F003046F4E18363668AC
:1043C000C6F305116C4E1C36366806F001056A4EC0
:1043D00024363668C6F3CC0616FB05F601EE106AE5
:1043E000B8EE410A002971D024B1012C50D0022C22
:1043F0006DD16DE0604E103E3668C6F340163EB398
:104400005D4E103E3668C6F3C1075C4E26FA07F3D0
:1044100001EE103AF8EE411A01EE101AB8EE411A08
:1044200081EE812A9FED581AC0EE011A524E2036B5
:104430003668C6F3080601EE106AB8EE411A31EE8E
:10444000811AF7EE001A31EE211A62EE010A1EE01F
:1044500001EE101AB8EE411ADFED4C1A81EE812AF6
:104460009FED491AC0EE011A434E20363668C6F356
:10447000080601EE106AB8EE411A31EE811A00E02A
:1044800076E0F7EE001A31EE211A62EE010A5BE0E7
:1044900001EE101AB8EE411A9FED3D2AC2EE011A44
:1044A0009FED391A80EE012A334E20363668C6F366
:1044B000080601EE106AB8EE411A32EE011AB7EEA4
:1044C000002A31EE021A61EE810A3DE04EE01DE065
:1044D00001EE101AB8EE411ADFED2E1A81EE812A94
:1044E0009FED291AC0EE011A234E20363668C6F316
:1044F000080601EE106AB8EE411A31EE811AF7EEA5
:10450000001A31EE211A62EE010A1DE001EE101AC6
:10451000B8EE411A9FED1E2AC2EE011A9FED1A1A3B
:1045200080EE012A144E20363668C6F3080601EEE6
:10453000106AB8EE411A32EE011AB7EE002A31EED7
:10454000021A61EE810A00BF00BF0B4E20363668AA
:10455000C6F34626721C01EE102AB8EE411AC0EED0
:10456000811ABCEEE11A11EE100A00E0002001E011
:10457000034800BF00BFF0BD104402580090D003B4
:1045800000093D0040787D01000000460024744C85
:104590000024744A20BCBE4B2DE9F047044614B9F0
:1045A0000120BDE8F087207800F00100002870D0DD
:1045B000FA48006800F03808F8481830D0F8009041
:1045C000B8F1100F06D0B8F1180F0FD109F00300A1
:1045D00002280BD1F14810380068C0F34040002891
:1045E0006AD06068002867D10120DAE700BF606800
:1045F000B0F5803F08D1E9481038006840F48030B9
:10460000E649103908602EE0606868B9E348103860
:10461000006820F48030E1491039086008460068DD
:1046200020F4802008601EE06068B0F5A02F0DD156
:10463000DA481038006840F48020D8491039086002
:104640000846006840F4803008600CE0D348103819
:10465000006820F48030D1491039086008460068AD
:1046600020F48020086000BF606898B1FDF7DCF995
:10467000054606E0FDF7D8F9401B642801D9032060
:104680008FE7C64810380068C0F340400028F1D0DA
:1046900012E012E0FDF7C8F9054606E0FDF7C4F99F
:1046A000401B642801D903207BE7BC481038006810
:1046B000C0F340400028F1D100BF207800F0020094
:1046C000022874D1B548006800F03808B3481830A3
:1046D000D0F80090B8F1000F05D0B8F1180F56D1FE
:1046E00009F00300D0BBAD4810380068C0F380006B
:1046F00018B1E06808B9012053E7A84810380068ED
:1047000020F01900E1680843A44910390860FDF75A
:104710008BF9054606E0FDF787F9401B022801D911
:1047200003203EE79D4810380068C0F38000002851
:10473000F1D000BFFDF772F941F2030188421AD8A7
:10474000206940280BD195480C38006820F47C3053
:1047500040F4003091490C39086017E017E08F48A9
:104760000C38006820F47C30216940EA01308B4924
:104770000C3908600AE089480C38006820F0FE40D7
:10478000217C40EA016085490C39086066E0E068F8
:1047900088B382481038006820F01900E1680843A7
:1047A0007E4910390860FDF73FF9054607E056E0FD
:1047B000FDF73AF9401B022801D90320F1E67748BA
:1047C00010380068C0F380000028F1D000BFFDF76A
:1047D00025F941F2030188421AD8206940280BD1FB
:1047E0006E480C38006820F47C3040F400306B498F
:1047F0000C39086017E017E068480C38006820F4AE
:104800007C30216940EA013064490C3908600AE0D3
:1048100062480C38006820F0FE40217C40EA0160CC
:104820005E490C39086019E05C481038006820F0D7
:1048300001005A4910390860FDF7F6F8054606E010
:10484000FDF7F2F8401B022801D90320A9E65348DE
:1048500010380068C0F380000028F1D100BF207834
:1048600000F0100010287CD14C48006800F0380897
:104870004A481830D0F80090B8F1080F06D0B8F1C7
:10488000180F3DD109F00300012839D143481038F1
:104890000068C0F3002020B1E069802801D0012029
:1048A0007FE600BFFDF7BAF841F2030188421AD84B
:1048B000206A20280AD139480C38006820F0F840D6
:1048C00040F0804035490C39086018E033480C3816
:1048D000006820F0F84094F8201040EA81602F49E9
:1048E0000C3908600BE02D48001F006820F07C5058
:1048F00094F8201040EA01602849091F086066E02A
:10490000E06978B325481038006840F080002349FA
:1049100010390860FDF788F8054606E0FDF784F8D1
:10492000401B022801D903203BE61C4810380068D0
:10493000C0F300200028F1D000BFFDF76FF841F26E
:10494000030188421CD8206A20280CD113480C3857
:10495000006820F0F84040F0804010490C390860B1
:104960001AE035E01CE00D480C38006820F0F840F3
:1049700094F8201040EA816008490C3908600BE087
:104980000648001F006820F07C5094F8201040EA90
:1049900001600249091F086019E000001044025834
:1049A000FA48006820F08000F8490860FDF73CF8FC
:1049B000054606E0FDF738F8401B022801D9032020
:1049C000EFE5F2480068C0F300200028F2D100BFF4
:1049D000207800F00800082836D16069D0B1EB4893
:1049E0007430006840F00100E84974310860FDF758
:1049F0001BF8054606E0FDF717F8401B022801D911
:104A00000320CEE5E14874300068C0F34000002880
:104A1000F1D019E0DD487430006820F00100DB4976
:104A200074310860FDF700F8054606E0FCF7FCFF6E
:104A3000401B022801D90320B3E5D4487430006834
:104A4000C0F340000028F1D1207800F02000202899
:104A500030D1A069B8B1CD48006840F48050CB494E
:104A60000860FCF7E1FF054606E0FCF7DDFF401BB0
:104A7000022801D9032094E5C4480068C0F34030FF
:104A80000028F2D016E0C148006820F48050BF49E9
:104A90000860FCF7C9FF054606E0FCF7C5FF401BB0
:104AA000022801D903207CE5B8480068C0F34030F3
:104AB0000028F2D1207800F0040004287DD1B44809
:104AC000006840F48070B2490860FCF7ADFF05460D
:104AD00006E0FCF7A9FF401B642801D9032060E52C
:104AE000AB48006800F480700028F2D000BFA068D6
:104AF000012808D1A5487030006840F00100A349A2
:104B0000703108602DE0A06868B9A0487030006876
:104B100020F001009D49703108600846006820F0CF
:104B2000040008601DE0A06805280DD1974870308A
:104B3000006840F00400954970310860084600683C
:104B400040F0010008600CE090487030006820F0F0
:104B500001008E49703108600846006820F00400AA
:104B6000086000BFA068A0B1FCF75EFF054608E042
:104B7000FCF75AFF401B41F28831884201D90320DB
:104B80000FE5824870300068C0F340000028EFD085
:104B900013E0FCF749FF054608E0FCF745FF401B22
:104BA00041F28831884201D90320FAE47748703015
:104BB0000068C0F340000028EFD1606A00287DD073
:104BC00072481030006800F03800182877D0606A0A
:104BD000022875D16D48006820F080706B4908602C
:104BE000FCF722FF054606E0FCF71EFF401B0228EB
:104BF00001D90320D5E465480068C0F3406000286F
:104C0000F2D100BFD4E90A1041EA00105F4928310F
:104C1000096840F2F332914308435C492831086047
:104C2000208E401EC0F30800616B491E4FF47E4287
:104C300002EA41210843218F491ED20102EA0141C3
:104C400008433C21095D491E120202EA0161084342
:104C50004E493031086000BF081F006820F0010095
:104C6000091F08604948343000684FF6F8718843DE
:104C7000A16C40EAC10045493431086043482C30FA
:104C8000006820F00C00216C084340492C3108607A
:104C90000846006820F00200616C08433B492C3153
:104CA00008600846006840F48030086008460068E4
:104CB00040F4003008600846006802E06AE038E02E
:104CC0001FE040F4802008600846006840F00100C2
:104CD00008602E48006840F080702C490860FCF79E
:104CE000A3FE054606E0FCF79FFE401B022801D903
:104CF000032056E425480068C0F340600028F2D045
:104D000048E02248006820F0807020490860FCF7E5
:104D10008BFE054606E0FCF787FE401B022801D902
:104D200003203EE419480068C0F340600028F2D137
:104D300030E0164828300768144830300668606A4A
:104D4000012821D007F00301A06A81421CD1C7F3DA
:104D50000511E06A884217D1C6F30801206B401E96
:104D6000814211D1606B401EC6F3462188420BD1AF
:104D7000A06B401EC6F30641884205D1E06B401E81
:104D8000C6F30661884205D001200AE400440258B7
:104D900000480258002004E470B504460D460CB9E2
:104DA000012070BD94F82C0028B9002084F82D0053
:104DB000204600F019F8022084F82C00211D2068FC
:104DC000FCF739F82946D4E90002FCF787F80548D2
:104DD000006840F0004003490860012084F82C007E
:104DE0000020DEE70040005210B586B0044600BF48
:104DF0003E48006840F480503C490860084600681E
:104E000000F48050009000BF00BF00BF37480C3056
:104E1000006840F0040035490C310860084600681D
:104E200000F00400009000BF00BF00BF084600680B
:104E300040F0080008600846006800F00800009094
:104E400000BF00BF00BF0846006840F010000860C7
:104E50000846006800F01000009000BF00BF00BFCF
:104E60000846006840F0200008600846006800F02E
:104E70002000009000BF00BF00BF0846006840F05F
:104E8000400008600846006800F04000009000BF45
:104E900000BF0D200190022002900120039003200A
:104EA00004900C20059001A91148FCF7ABFC4CF2D2
:104EB0000370019001A90F48FCF7A4FC4FF6837022
:104EC000019001A90C48FCF79DFC4FF63F000190B2
:104ED00001A90A48FCF796FC48F23710019001A995
:104EE0000748FCF78FFC06B010BD0000D444025800
:104EF00000080258000C0258001002580014025812
:104F00000018025870B504460D4694F82C0002288B
:104F100000D170BD94F82C0001280AD1022084F839
:104F20002C0029462068FBF7BCFF012084F82C00E8
:104F300001E00120EDE70020EBE72DE9F041044618
:104F40000E46174694F82C50022D02D10220BDE8DF
:104F5000F081012D01D0052D12D1022084F82C0002
:104F60003A4631462068FBF7A6FF3068022803D195
:104F7000052084F82C0005E0012084F82C0001E0D5
:104F80000120E4E70020E2E72DE9F04188B0044683
:104F90000F460025A846032084F83000A06B0328A4
:104FA00020D0B7F5004F04D1606B40F080506063B3
:104FB0001CE0B7F5804F07D1204602F04BFD0646B6
:104FC000606B3043606311E03FB9204602F00EFD94
:104FD0000646606B3043606308E0606B40F0006041
:104FE000606303E0606B40F080506063606B28B1E9
:104FF0004248216888634FF0010868E04FF4803030
:10500000FDF77EFE0546002D5BD060680390A0682A
:1050100004900597206906903948B5FBF0F1606966
:10502000814202D86069079041E0A06DB0F5007F31
:1050300002D1606907903AE0A06DB0F5807F1BD186
:10504000606950B92E48854204D94000B5FBF0F0A4
:1050500007902CE06069079029E060694000B5FB8B
:10506000F0F02749884204D94800B5FBF0F00790DA
:105070001DE0606907901AE0606950B921488542D7
:1050800004D94000B5FBF0F0079010E0606907908C
:105090000DE060694000B5FBF0F01A49884204D980
:1050A0004800B5FBF0F0079001E060690790DDE98A
:1050B0000601CDE90001206803A90EC902F016FA25
:1050C00005E0606B40F0006060634FF001084FF452
:1050D0000071206801F023FE06463EB107482168B2
:1050E0008863606B304360634FF00108012084F8EF
:1050F0003000404608B0BDE8F0810000FF0FE01F1F
:1051000080F0FA0240787D0110B50246D06D800F24
:105110000870D06DC0F383604870D06DC0F301603B
:105120008870D06D000CC870B2F85C00000A08717D
:1051300092F85C004871106E000DC880106EC0F3CC
:10514000034008726020805AC0F3C030487260206B
:10515000805AC0F3803088726020805AC0F340309B
:10516000C8726020805AC0F3003008730020487372
:10517000906B002836D16020805A8005030D506E58
:1051800043EA90700861506EC0F3C2600875506EBB
:10519000C0F302604875506EC0F342508875506E7F
:1051A000C0F38240C875506EC0F3C23008760869FB
:1051B000401C90640B7E906C03F007039B1C012441
:1051C0009C4060439064087A00F00F0301209840EF
:1051D000D064D2E912035B0A584310654FF40073A0
:1051E000536521E0906B012813D16020805C80061C
:1051F000830A506E43EA104008610869401C83022C
:105200009364936C13654FF40073D364D36C53654C
:105210000AE02E4813689863506B40F0805050634A
:10522000012082F8300010BD6420805AC0F3803025
:1052300001F8190F6420805AC0F3C610487064202A
:10524000805C00F07F008870906EC00FC870906E18
:10525000C0F341700871906EC0F382604871906E27
:10526000C0F383508871906EC0F34050C871002025
:105270000872906EC0F3004048726820805AC0F3F4
:10528000C03088726820805AC0F38030C8726820AD
:10529000805AC0F3403008736820805AC0F3003051
:1052A00048736820805AC0F3812088736820805A30
:1052B000C0F30120C8736820805CC0F34600087406
:1052C0000120487419390020ADE70000FF0FE01FEE
:1052D0000246906B0860D06B4860106C8860506C20
:1052E000C860906C0861D06C4861106D8861506D29
:1052F000C86100207047F8B5044600200090694658
:10530000204602F05BFB054615B1606B28436063E5
:105310000098C0F343263046F8BD0000F0B591B0C8
:1053200005460C46002795F83000032802D10120DD
:1053300011B0F0BD01A9284602F0A6FA064656B102
:105340002F4829688863686B30436863012085F8BB
:105350003000012743E00198C0F3811020700198CC
:10536000C0F340106070019800F47F00000A0199BA
:1053700040EA1160608002980006029901F47F41C2
:1053800040EA0120029901F47F0140EA11200299CC
:1053900040EA11606060039820720398000A60720E
:1053A0000398C0F30350A0720498C0B2039901F0AF
:1053B0007F4140EA1140A0810498C0F38520A0738A
:1053C0000498C0F30120E0730498C0F30310207424
:1053D000049800F00F0060740598000EA0744FF45C
:1053E0000071286801F09BFC06463EB1044829681C
:1053F00088636E63012085F830000127384697E7FF
:10540000FF0FE01FF0B585B0044614B9012005B0C8
:10541000F0BD94F8300020B900202076204600F03E
:10542000B1F8042084F83000204600F045F808B1B7
:105430000120ECE769462046FFF770FF08B1012024
:10544000E5E79DF810609DF81170A06B012805D16B
:1054500006B91FB14FF40071A16507E0A06B0128E8
:1054600002D10102A16501E00021A1652046E168A9
:10547000FFF78AFD08B10120C9E7FCF7D5FA054618
:105480000CE0FCF7D1FA401B401C38B94FF000404B
:105490006063012084F830000320B8E72046FFF75E
:1054A0002AFF0428EDD100206063E062012084F827
:1054B00030000020ABE70000F0B587B004460026BE
:1054C000002002900390049005904FF48030FDF787
:1054D00017FC06463EB9012084F83000C006606320
:1054E000012007B0F0BD2448B6FBF0F00690DDE9DE
:1054F0000501CDE90001206802A90EC901F0F6FFFF
:10550000206802F00DF806984000B6FBF0F61B4844
:10551000B0FBF6F0471C3846FCF764F9204602F071
:105520004DF905463DB1012084F83000606B2843F9
:1055300060630120D5E7204602F0BAF805463DB188
:10554000012084F83000606B284360630120C8E7C5
:105550004FF40071206801F0E2FB05464DB10848A8
:1055600021688863606B28436063012084F8300001
:10557000B7E70020B5E7000000350C00102101005E
:10558000FF0FE01F10B586B00446524920688842DC
:105590007ED100BF5048006840F480304E4908601A
:1055A0000846006800F48030009000BF00BF00BFD4
:1055B00000BF49480C30006840F0040046490C31F7
:1055C00008600846006800F00400009000BF00BFBB
:1055D00000BF00BF00BF0846006840F0040008603C
:1055E0000846006800F00400009000BF00BF00BF44
:1055F00000BF00BF0846006840F00400086008468D
:10560000006800F00400009000BF00BF00BF00BFB2
:1056100000BF0846006840F00400086008460068C3
:1056200000F00400009000BF00BF00BF00BF00BF3B
:105630000846006840F0040008600846006800F072
:105640000400009000BF00BF00BF00BF00BF0846BD
:10565000006840F0080008600846006800F0080094
:10566000009000BF00BF00BF4FF480700190022087
:10567000029001200390022004900C20059001A9C3
:105680001648FCF7BFF84FF40070019001A900E044
:105690001EE01248FCF7B6F84FF48060019001A9B3
:1056A0000E48FCF7AFF84FF40060019001A90B48D9
:1056B000FCF7A8F84FF48050019001A90748FCF7C7
:1056C000A1F80420019001A90548FCF79BF800BF50
:1056D00006B010BD00700052D444025800080258B1
:1056E000000C02582DE9FF4F89B0044689469846C0
:1056F000FCF79AF90290DDF82CB04D46B9F1000F95
:1057000007D1606B40F00060606301200DB0BDE820
:10571000F08F94F8300001287ED1002060630BEBFD
:105720000801206D814205D9606B40F00070606314
:105730000120EBE7032084F8300000202168C862D4
:10574000A06B012801D04FEA4B2B4FF0FF300390A4
:105750004FEA4820049090200590022006900020F7
:105760000790089003A9206801F0AAFC2068C0688F
:1057700040F040002168C860B8F1010F07D902204D
:10578000E0625946206801F033FB064606E001203E
:10579000E0625946206801F048FB064666B15D4864
:1057A00021688863606B30436063012084F83000B7
:1057B0000020E0620120A9E7DDF810A03AE02068AF
:1057C000406B00F40040E0B1BAF1200F19D3002083
:1057D000019011E0206801F0AAFE07462F706D1CB1
:1057E000380A28706D1C380C28706D1C380E287013
:1057F0006D1C0198401C019001980828EAD3AAF179
:10580000200AFCF711F90299411A1698814201D237
:10581000169878B93F4800E076E021688863606BAD
:1058200040F000406063012084F830000020E06216
:1058300003206BE72068406B00F495700028BED011
:105840002068C06820F040002168C8602068406B74
:1058500000F48070B8B1B8F1010F14D9A06B03281F
:1058600011D0206801F0C4FB064666B129482168C2
:105870008863606B30436063012084F8300000204F
:10588000E062012042E72068406B00F0080068B148
:10589000204821688863606B40F008006063012045
:1058A00084F830000020E06201202FE72068406B80
:1058B00000F0020068B1174821688863606B40F00F
:1058C00002006063012084F830000020E0620120C3
:1058D0001CE72068406B00F0200068B10D4821688B
:1058E0008863606B40F020006063012084F8300022
:1058F0000020E062012009E7074821688863012051
:1059000084F83000002001E7606B40F000506063D5
:105910000120FBE6FF0FE01F3A0F00182DE9F04FC2
:1059200089B00446884693461F46FCF77DF80290EE
:10593000DA464546B8F1000F07D1606B40F00060D1
:105940006063012009B0BDE8F08F94F830000128B1
:105950007ED1002060630AEB0701206D814205D9EA
:10596000606B40F0007060630120EBE7032084F877
:10597000300000202168C862A06B012801D04FEAE6
:105980004A2A4FF0FF30039078020490902005904F
:10599000002006900790089003A9206801F090FB72
:1059A0002068C06840F040002168C860012F07D916
:1059B0002020E0625146206801F048FB064606E0E0
:1059C0001020E0625146206801F05DFB064666B19A
:1059D000614821688863606B30436063012084F80C
:1059E00030000020E0620120ACE7DDF8109043E0D9
:1059F0002068406B00F4804030B3B9F1200F23D30E
:105A0000002001901BE0287800906D1C28780099F8
:105A100041EA002000906D1C2878009941EA00407E
:105A200000906D1C2878009941EA006000906D1C80
:105A30006946206801F096FD0198401C019001988C
:105A40000828E0D3A9F12009FBF7EEFF029900E056
:105A50007BE0411A1298814201D2129860B93E4807
:105A600021688863606B30436063012084F83000F4
:105A70000020E062032065E72068406B00F48D7031
:105A80000028B5D02068C06820F040002168C860B8
:105A90002068406B00F48070B0B1012F14D9A06B66
:105AA000032811D0206801F0A3FA064666B12A48FF
:105AB00021688863606B30436063012084F83000A4
:105AC0000020E06201203DE72068406B00F0080004
:105AD00068B1214821688863606B40F0080060630A
